{
  "_format": "hh-sol-artifact-1",
  "contractName": "Certification",
  "sourceName": "contracts/Certification.sol",
  "abi": [
    {
      "inputs": [],
      "stateMutability": "nonpayable",
      "type": "constructor"
    },
    {
      "anonymous": false,
      "inputs": [
        {
          "indexed": true,
          "internalType": "string[]",
          "name": "_cid",
          "type": "string[]"
        },
        {
          "indexed": true,
          "internalType": "string[]",
          "name": "_ipfs",
          "type": "string[]"
        },
        {
          "indexed": true,
          "internalType": "uint256",
          "name": "_totalCerificates",
          "type": "uint256"
        }
      ],
      "name": "certificateAdded",
      "type": "event"
    },
    {
      "anonymous": false,
      "inputs": [
        {
          "indexed": true,
          "internalType": "address",
          "name": "_prevOwner",
          "type": "address"
        },
        {
          "indexed": true,
          "internalType": "address",
          "name": "_newOwner",
          "type": "address"
        }
      ],
      "name": "ownerChanged",
      "type": "event"
    },
    {
      "stateMutability": "nonpayable",
      "type": "fallback"
    },
    {
      "inputs": [
        {
          "internalType": "string[]",
          "name": "_cid",
          "type": "string[]"
        },
        {
          "internalType": "string[]",
          "name": "_ipfsUrl1",
          "type": "string[]"
        },
        {
          "internalType": "string[]",
          "name": "_ipfsUrl2",
          "type": "string[]"
        }
      ],
      "name": "addCertificate",
      "outputs": [],
      "stateMutability": "nonpayable",
      "type": "function"
    },
    {
      "inputs": [
        {
          "internalType": "string",
          "name": "_cid",
          "type": "string"
        }
      ],
      "name": "certificateExist",
      "outputs": [
        {
          "internalType": "string[2]",
          "name": "",
          "type": "string[2]"
        }
      ],
      "stateMutability": "view",
      "type": "function"
    },
    {
      "inputs": [
        {
          "internalType": "string",
          "name": "",
          "type": "string"
        },
        {
          "internalType": "uint256",
          "name": "",
          "type": "uint256"
        }
      ],
      "name": "certificates",
      "outputs": [
        {
          "internalType": "string",
          "name": "",
          "type": "string"
        }
      ],
      "stateMutability": "view",
      "type": "function"
    },
    {
      "inputs": [
        {
          "internalType": "address",
          "name": "_newOwner",
          "type": "address"
        }
      ],
      "name": "changeOwner",
      "outputs": [],
      "stateMutability": "nonpayable",
      "type": "function"
    },
    {
      "inputs": [],
      "name": "owner",
      "outputs": [
        {
          "internalType": "address",
          "name": "",
          "type": "address"
        }
      ],
      "stateMutability": "view",
      "type": "function"
    }
  ],
  "bytecode": "0x608060405234801561001057600080fd5b50336000806101000a81548173ffffffffffffffffffffffffffffffffffffffff021916908373ffffffffffffffffffffffffffffffffffffffff160217905550611055806100606000396000f3fe608060405234801561001057600080fd5b506004361061005b5760003560e01c8063211494fc1461005e5780633d18a3bc1461008e5780638da5cb5b146100aa578063a6f9dae1146100c8578063cf592f19146100e45761005c565b5b005b61007860048036038101906100739190610983565b610114565b6040516100859190610bd7565b60405180910390f35b6100a860048036038101906100a39190610893565b6101da565b005b6100b261035b565b6040516100bf9190610b9a565b60405180910390f35b6100e260048036038101906100dd9190610866565b61037f565b005b6100fe60048036038101906100f9919061093a565b6104ae565b60405161010b9190610bb5565b60405180910390f35b600282805160208101820180518482526020830160208501208183528095505050505050816002811061014657600080fd5b0160009150915050805461015990610dbe565b80601f016020809104026020016040519081016040528092919081815260200182805461018590610dbe565b80156101d25780601f106101a7576101008083540402835291602001916101d2565b820191906000526020600020905b8154815290600101906020018083116101b557829003601f168201915b505050505081565b815183511461021e576040517f08c379a000000000000000000000000000000000000000000000000000000000815260040161021590610bf9565b60405180910390fd5b60005b835181101561035557600084828151811061023f5761023e610ec8565b5b6020026020010151905083828151811061025c5761025b610ec8565b5b60200260200101516002826040516102749190610b83565b908152602001604051809103902060006002811061029557610294610ec8565b5b0190805190602001906102a9929190610646565b508282815181106102bd576102bc610ec8565b5b60200260200101516002826040516102d59190610b83565b90815260200160405180910390206001600281106102f6576102f5610ec8565b5b01908051906020019061030a929190610646565b506001808260405161031c9190610b83565b908152602001604051809103902060006101000a81548160ff02191690831515021790555050808061034d90610e21565b915050610221565b50505050565b60008054906101000a900473ffffffffffffffffffffffffffffffffffffffff1681565b60008054906101000a900473ffffffffffffffffffffffffffffffffffffffff1673ffffffffffffffffffffffffffffffffffffffff163373ffffffffffffffffffffffffffffffffffffffff161461040d576040517f08c379a000000000000000000000000000000000000000000000000000000000815260040161040490610c19565b60405180910390fd5b8073ffffffffffffffffffffffffffffffffffffffff1660008054906101000a905050508073ffffffffffffffffffffffffffffffffffffffff1660008054906101000a900473ffffffffffffffffffffffffffffffffffffffff1673ffffffffffffffffffffffffffffffffffffffff167f232fba693394e47cdbc6f4760e24687abfb144ddca4600a356321757a0a129fb60405160405180910390a350565b6104b66106cc565b60008015156001846040516104cb9190610b83565b908152602001604051809103902060009054906101000a900460ff16151514156104f857600090506104fd565b600190505b6001151581151514610544576040517f08c379a000000000000000000000000000000000000000000000000000000000815260040161053b90610c39565b60405180910390fd5b600061054f8461055b565b90508092505050919050565b6105636106cc565b6002826040516105739190610b83565b9081526020016040518091039020600280602002604051908101604052809291906000905b8282101561063b5783820180546105ae90610dbe565b80601f01602080910402602001604051908101604052809291908181526020018280546105da90610dbe565b80156106275780601f106105fc57610100808354040283529160200191610627565b820191906000526020600020905b81548152906001019060200180831161060a57829003601f168201915b505050505081526020019060010190610598565b505050509050919050565b82805461065290610dbe565b90600052602060002090601f01602090048101928261067457600085556106bb565b82601f1061068d57805160ff19168380011785556106bb565b828001600101855582156106bb579182015b828111156106ba57825182559160200191906001019061069f565b5b5090506106c891906106f3565b5090565b60405180604001604052806002905b60608152602001906001900390816106db5790505090565b5b8082111561070c5760008160009055506001016106f4565b5090565b600061072361071e84610c7e565b610c59565b9050808382526020820190508285602086028201111561074657610745610f2b565b5b60005b8581101561079457813567ffffffffffffffff81111561076c5761076b610f26565b5b8086016107798982610823565b85526020850194506020840193505050600181019050610749565b5050509392505050565b60006107b16107ac84610caa565b610c59565b9050828152602081018484840111156107cd576107cc610f30565b5b6107d8848285610d7c565b509392505050565b6000813590506107ef81610ff1565b92915050565b600082601f83011261080a57610809610f26565b5b813561081a848260208601610710565b91505092915050565b600082601f83011261083857610837610f26565b5b813561084884826020860161079e565b91505092915050565b60008135905061086081611008565b92915050565b60006020828403121561087c5761087b610f3a565b5b600061088a848285016107e0565b91505092915050565b6000806000606084860312156108ac576108ab610f3a565b5b600084013567ffffffffffffffff8111156108ca576108c9610f35565b5b6108d6868287016107f5565b935050602084013567ffffffffffffffff8111156108f7576108f6610f35565b5b610903868287016107f5565b925050604084013567ffffffffffffffff81111561092457610923610f35565b5b610930868287016107f5565b9150509250925092565b6000602082840312156109505761094f610f3a565b5b600082013567ffffffffffffffff81111561096e5761096d610f35565b5b61097a84828501610823565b91505092915050565b6000806040838503121561099a57610999610f3a565b5b600083013567ffffffffffffffff8111156109b8576109b7610f35565b5b6109c485828601610823565b92505060206109d585828601610851565b9150509250929050565b60006109eb8383610a77565b905092915050565b6109fc81610d40565b82525050565b6000610a0d82610ce5565b610a178185610d08565b935083602082028501610a2985610cdb565b8060005b85811015610a655784840389528151610a4685826109df565b9450610a5183610cfb565b925060208a01995050600181019050610a2d565b50829750879550505050505092915050565b6000610a8282610cf0565b610a8c8185610d13565b9350610a9c818560208601610d8b565b610aa581610f3f565b840191505092915050565b6000610abb82610cf0565b610ac58185610d24565b9350610ad5818560208601610d8b565b610ade81610f3f565b840191505092915050565b6000610af482610cf0565b610afe8185610d35565b9350610b0e818560208601610d8b565b80840191505092915050565b6000610b27602a83610d24565b9150610b3282610f50565b604082019050919050565b6000610b4a601383610d24565b9150610b5582610f9f565b602082019050919050565b6000610b6d601a83610d24565b9150610b7882610fc8565b602082019050919050565b6000610b8f8284610ae9565b915081905092915050565b6000602082019050610baf60008301846109f3565b92915050565b60006020820190508181036000830152610bcf8184610a02565b905092915050565b60006020820190508181036000830152610bf18184610ab0565b905092915050565b60006020820190508181036000830152610c1281610b1a565b9050919050565b60006020820190508181036000830152610c3281610b3d565b9050919050565b60006020820190508181036000830152610c5281610b60565b9050919050565b6000610c63610c74565b9050610c6f8282610df0565b919050565b6000604051905090565b600067ffffffffffffffff821115610c9957610c98610ef7565b5b602082029050602081019050919050565b600067ffffffffffffffff821115610cc557610cc4610ef7565b5b610cce82610f3f565b9050602081019050919050565b6000819050919050565b600060029050919050565b600081519050919050565b6000602082019050919050565b600081905092915050565b600082825260208201905092915050565b600082825260208201905092915050565b600081905092915050565b6000610d4b82610d52565b9050919050565b600073ffffffffffffffffffffffffffffffffffffffff82169050919050565b6000819050919050565b82818337600083830152505050565b60005b83811015610da9578082015181840152602081019050610d8e565b83811115610db8576000848401525b50505050565b60006002820490506001821680610dd657607f821691505b60208210811415610dea57610de9610e99565b5b50919050565b610df982610f3f565b810181811067ffffffffffffffff82111715610e1857610e17610ef7565b5b80604052505050565b6000610e2c82610d72565b91507fffffffffffffffffffffffffffffffffffffffffffffffffffffffffffffffff821415610e5f57610e5e610e6a565b5b600182019050919050565b7f4e487b7100000000000000000000000000000000000000000000000000000000600052601160045260246000fd5b7f4e487b7100000000000000000000000000000000000000000000000000000000600052602260045260246000fd5b7f4e487b7100000000000000000000000000000000000000000000000000000000600052603260045260246000fd5b7f4e487b7100000000000000000000000000000000000000000000000000000000600052604160045260246000fd5b600080fd5b600080fd5b600080fd5b600080fd5b600080fd5b6000601f19601f8301169050919050565b7f546865726520697320736f6d65206d697373696e67206669656c64732e20436860008201527f65636b20416761696e2100000000000000000000000000000000000000000000602082015250565b7f596f7520617265206e6f742061206f776e657200000000000000000000000000600082015250565b7f436572746966696361746520646f6573206e6f74206578697374000000000000600082015250565b610ffa81610d40565b811461100557600080fd5b50565b61101181610d72565b811461101c57600080fd5b5056fea26469706673582212201d2c3827d30d6b3e39b765ade2d717a4482dc185b12aedb075b21b77bfab0b5964736f6c63430008070033",
  "linkReferences": {},
  "deployedLinkReferences": {}
}